{
  "_format": "hh-sol-artifact-1",
  "contractName": "BuyMeCoffee",
  "sourceName": "contracts/BuyMeCoffee.sol",
  "abi": [
    {
      "inputs": [],
      "stateMutability": "nonpayable",
      "type": "constructor"
    },
    {
      "anonymous": false,
      "inputs": [
        {
          "indexed": true,
          "internalType": "address",
          "name": "supporter",
          "type": "address"
        },
        {
          "indexed": false,
          "internalType": "uint256",
          "name": "amount",
          "type": "uint256"
        },
        {
          "indexed": false,
          "internalType": "string",
          "name": "message",
          "type": "string"
        },
        {
          "indexed": false,
          "internalType": "uint256",
          "name": "timestamp",
          "type": "uint256"
        }
      ],
      "name": "CoffeeBought",
      "type": "event"
    },
    {
      "inputs": [
        {
          "internalType": "string",
          "name": "message",
          "type": "string"
        }
      ],
      "name": "buyCoffee",
      "outputs": [],
      "stateMutability": "payable",
      "type": "function"
    },
    {
      "inputs": [
        {
          "internalType": "uint256",
          "name": "",
          "type": "uint256"
        }
      ],
      "name": "contributions",
      "outputs": [
        {
          "internalType": "address",
          "name": "supporter",
          "type": "address"
        },
        {
          "internalType": "uint256",
          "name": "amount",
          "type": "uint256"
        },
        {
          "internalType": "string",
          "name": "message",
          "type": "string"
        },
        {
          "internalType": "uint256",
          "name": "timestamp",
          "type": "uint256"
        }
      ],
      "stateMutability": "view",
      "type": "function"
    },
    {
      "inputs": [],
      "name": "getContributions",
      "outputs": [
        {
          "components": [
            {
              "internalType": "address",
              "name": "supporter",
              "type": "address"
            },
            {
              "internalType": "uint256",
              "name": "amount",
              "type": "uint256"
            },
            {
              "internalType": "string",
              "name": "message",
              "type": "string"
            },
            {
              "internalType": "uint256",
              "name": "timestamp",
              "type": "uint256"
            }
          ],
          "internalType": "struct BuyMeCoffee.Contribution[]",
          "name": "",
          "type": "tuple[]"
        }
      ],
      "stateMutability": "view",
      "type": "function"
    },
    {
      "inputs": [],
      "name": "owner",
      "outputs": [
        {
          "internalType": "address",
          "name": "",
          "type": "address"
        }
      ],
      "stateMutability": "view",
      "type": "function"
    },
    {
      "inputs": [
        {
          "internalType": "address",
          "name": "newOwner",
          "type": "address"
        }
      ],
      "name": "setOwner",
      "outputs": [],
      "stateMutability": "nonpayable",
      "type": "function"
    },
    {
      "inputs": [],
      "name": "withdraw",
      "outputs": [],
      "stateMutability": "nonpayable",
      "type": "function"
    }
  ],
  "bytecode": "0x6080604052348015600f57600080fd5b50336000806101000a81548173ffffffffffffffffffffffffffffffffffffffff021916908373ffffffffffffffffffffffffffffffffffffffff1602179055506111348061005f6000396000f3fe6080604052600436106100555760003560e01c806313af40351461005a5780631cee0700146100835780632b371b54146100c35780633ccfd60b146100df5780638da5cb5b146100f6578063dda0a81a14610121575b600080fd5b34801561006657600080fd5b50610081600480360381019061007c919061075a565b61014c565b005b34801561008f57600080fd5b506100aa60048036038101906100a591906107bd565b61021d565b6040516100ba9493929190610898565b60405180910390f35b6100dd60048036038101906100d89190610a19565b610305565b005b3480156100eb57600080fd5b506100f4610472565b005b34801561010257600080fd5b5061010b610569565b6040516101189190610a62565b60405180910390f35b34801561012d57600080fd5b5061013661058d565b6040516101439190610c0a565b60405180910390f35b60008054906101000a900473ffffffffffffffffffffffffffffffffffffffff1673ffffffffffffffffffffffffffffffffffffffff163373ffffffffffffffffffffffffffffffffffffffff16146101da576040517f08c379a00000000000000000000000000000000000000000000000000000000081526004016101d190610c9e565b60405180910390fd5b806000806101000a81548173ffffffffffffffffffffffffffffffffffffffff021916908373ffffffffffffffffffffffffffffffffffffffff16021790555050565b6001818154811061022d57600080fd5b90600052602060002090600402016000915090508060000160009054906101000a900473ffffffffffffffffffffffffffffffffffffffff169080600101549080600201805461027c90610ced565b80601f01602080910402602001604051908101604052809291908181526020018280546102a890610ced565b80156102f55780601f106102ca576101008083540402835291602001916102f5565b820191906000526020600020905b8154815290600101906020018083116102d857829003601f168201915b5050505050908060030154905084565b60003411610348576040517f08c379a000000000000000000000000000000000000000000000000000000000815260040161033f90610d90565b60405180910390fd5b600160405180608001604052803373ffffffffffffffffffffffffffffffffffffffff16815260200134815260200183815260200142815250908060018154018082558091505060019003906000526020600020906004020160009091909190915060008201518160000160006101000a81548173ffffffffffffffffffffffffffffffffffffffff021916908373ffffffffffffffffffffffffffffffffffffffff1602179055506020820151816001015560408201518160020190816104109190610f5c565b506060820151816003015550503373ffffffffffffffffffffffffffffffffffffffff167f68c6b27d541e53668b87dc95557cffea5229e28877a1c6365eeb6c589df57e163483426040516104679392919061102e565b60405180910390a250565b60008054906101000a900473ffffffffffffffffffffffffffffffffffffffff1673ffffffffffffffffffffffffffffffffffffffff163373ffffffffffffffffffffffffffffffffffffffff1614610500576040517f08c379a00000000000000000000000000000000000000000000000000000000081526004016104f7906110de565b60405180910390fd5b60008054906101000a900473ffffffffffffffffffffffffffffffffffffffff1673ffffffffffffffffffffffffffffffffffffffff166108fc479081150290604051600060405180830381858888f19350505050158015610566573d6000803e3d6000fd5b50565b60008054906101000a900473ffffffffffffffffffffffffffffffffffffffff1681565b60606001805480602002602001604051908101604052809291908181526020016000905b828210156106df57838290600052602060002090600402016040518060800160405290816000820160009054906101000a900473ffffffffffffffffffffffffffffffffffffffff1673ffffffffffffffffffffffffffffffffffffffff1673ffffffffffffffffffffffffffffffffffffffff1681526020016001820154815260200160028201805461064490610ced565b80601f016020809104026020016040519081016040528092919081815260200182805461067090610ced565b80156106bd5780601f10610692576101008083540402835291602001916106bd565b820191906000526020600020905b8154815290600101906020018083116106a057829003601f168201915b50505050508152602001600382015481525050815260200190600101906105b1565b50505050905090565b6000604051905090565b600080fd5b600080fd5b600073ffffffffffffffffffffffffffffffffffffffff82169050919050565b6000610727826106fc565b9050919050565b6107378161071c565b811461074257600080fd5b50565b6000813590506107548161072e565b92915050565b6000602082840312156107705761076f6106f2565b5b600061077e84828501610745565b91505092915050565b6000819050919050565b61079a81610787565b81146107a557600080fd5b50565b6000813590506107b781610791565b92915050565b6000602082840312156107d3576107d26106f2565b5b60006107e1848285016107a8565b91505092915050565b6107f38161071c565b82525050565b61080281610787565b82525050565b600081519050919050565b600082825260208201905092915050565b60005b83811015610842578082015181840152602081019050610827565b60008484015250505050565b6000601f19601f8301169050919050565b600061086a82610808565b6108748185610813565b9350610884818560208601610824565b61088d8161084e565b840191505092915050565b60006080820190506108ad60008301876107ea565b6108ba60208301866107f9565b81810360408301526108cc818561085f565b90506108db60608301846107f9565b95945050505050565b600080fd5b600080fd5b7f4e487b7100000000000000000000000000000000000000000000000000000000600052604160045260246000fd5b6109268261084e565b810181811067ffffffffffffffff82111715610945576109446108ee565b5b80604052505050565b60006109586106e8565b9050610964828261091d565b919050565b600067ffffffffffffffff821115610984576109836108ee565b5b61098d8261084e565b9050602081019050919050565b82818337600083830152505050565b60006109bc6109b784610969565b61094e565b9050828152602081018484840111156109d8576109d76108e9565b5b6109e384828561099a565b509392505050565b600082601f830112610a00576109ff6108e4565b5b8135610a108482602086016109a9565b91505092915050565b600060208284031215610a2f57610a2e6106f2565b5b600082013567ffffffffffffffff811115610a4d57610a4c6106f7565b5b610a59848285016109eb565b91505092915050565b6000602082019050610a7760008301846107ea565b92915050565b600081519050919050565b600082825260208201905092915050565b6000819050602082019050919050565b610ab28161071c565b82525050565b610ac181610787565b82525050565b600082825260208201905092915050565b6000610ae382610808565b610aed8185610ac7565b9350610afd818560208601610824565b610b068161084e565b840191505092915050565b6000608083016000830151610b296000860182610aa9565b506020830151610b3c6020860182610ab8565b5060408301518482036040860152610b548282610ad8565b9150506060830151610b696060860182610ab8565b508091505092915050565b6000610b808383610b11565b905092915050565b6000602082019050919050565b6000610ba082610a7d565b610baa8185610a88565b935083602082028501610bbc85610a99565b8060005b85811015610bf85784840389528151610bd98582610b74565b9450610be483610b88565b925060208a01995050600181019050610bc0565b50829750879550505050505092915050565b60006020820190508181036000830152610c248184610b95565b905092915050565b7f4f6e6c7920746865206f776e65722063616e207365742061206e6577206f776e60008201527f65722e0000000000000000000000000000000000000000000000000000000000602082015250565b6000610c88602383610813565b9150610c9382610c2c565b604082019050919050565b60006020820190508181036000830152610cb781610c7b565b9050919050565b7f4e487b7100000000000000000000000000000000000000000000000000000000600052602260045260246000fd5b60006002820490506001821680610d0557607f821691505b602082108103610d1857610d17610cbe565b5b50919050565b7f416d6f756e74206d7573742062652067726561746572207468616e207a65726f60008201527f2e00000000000000000000000000000000000000000000000000000000000000602082015250565b6000610d7a602183610813565b9150610d8582610d1e565b604082019050919050565b60006020820190508181036000830152610da981610d6d565b9050919050565b60008190508160005260206000209050919050565b60006020601f8301049050919050565b600082821b905092915050565b600060088302610e127fffffffffffffffffffffffffffffffffffffffffffffffffffffffffffffffff82610dd5565b610e1c8683610dd5565b95508019841693508086168417925050509392505050565b6000819050919050565b6000610e59610e54610e4f84610787565b610e34565b610787565b9050919050565b6000819050919050565b610e7383610e3e565b610e87610e7f82610e60565b848454610de2565b825550505050565b600090565b610e9c610e8f565b610ea7818484610e6a565b505050565b5b81811015610ecb57610ec0600082610e94565b600181019050610ead565b5050565b601f821115610f1057610ee181610db0565b610eea84610dc5565b81016020851015610ef9578190505b610f0d610f0585610dc5565b830182610eac565b50505b505050565b600082821c905092915050565b6000610f3360001984600802610f15565b1980831691505092915050565b6000610f4c8383610f22565b9150826002028217905092915050565b610f6582610808565b67ffffffffffffffff811115610f7e57610f7d6108ee565b5b610f888254610ced565b610f93828285610ecf565b600060209050601f831160018114610fc65760008415610fb4578287015190505b610fbe8582610f40565b865550611026565b601f198416610fd486610db0565b60005b82811015610ffc57848901518255600182019150602085019450602081019050610fd7565b868310156110195784890151611015601f891682610f22565b8355505b6001600288020188555050505b505050505050565b600060608201905061104360008301866107f9565b8181036020830152611055818561085f565b905061106460408301846107f9565b949350505050565b7f4f6e6c7920746865206f776e65722063616e2077697468647261772066756e6460008201527f732e000000000000000000000000000000000000000000000000000000000000602082015250565b60006110c8602283610813565b91506110d38261106c565b604082019050919050565b600060208201905081810360008301526110f7816110bb565b905091905056fea2646970667358221220a3c8536537f03850e814d407e123927a1ae778cbd888c829000a579d207c846164736f6c634300081c0033",
  "linkReferences": {},
  "deployedLinkReferences": {}
}