{
  "_format": "hh-sol-artifact-1",
  "contractName": "Greeter",
  "sourceName": "contracts/Greeter.sol",
  "abi": [
    {
      "inputs": [
        {
          "internalType": "string",
          "name": "_initialName",
          "type": "string"
        }
      ],
      "stateMutability": "nonpayable",
      "type": "constructor"
    },
    {
      "anonymous": false,
      "inputs": [
        {
          "indexed": false,
          "internalType": "string",
          "name": "oldName",
          "type": "string"
        },
        {
          "indexed": false,
          "internalType": "string",
          "name": "newName",
          "type": "string"
        }
      ],
      "name": "NameChanged",
      "type": "event"
    },
    {
      "inputs": [
        {
          "internalType": "string",
          "name": "_newName",
          "type": "string"
        }
      ],
      "name": "changeName",
      "outputs": [],
      "stateMutability": "nonpayable",
      "type": "function"
    },
    {
      "inputs": [],
      "name": "greet",
      "outputs": [
        {
          "internalType": "string",
          "name": "",
          "type": "string"
        }
      ],
      "stateMutability": "view",
      "type": "function"
    },
    {
      "inputs": [],
      "name": "name",
      "outputs": [
        {
          "internalType": "string",
          "name": "",
          "type": "string"
        }
      ],
      "stateMutability": "view",
      "type": "function"
    },
    {
      "inputs": [],
      "name": "owner",
      "outputs": [
        {
          "internalType": "address",
          "name": "",
          "type": "address"
        }
      ],
      "stateMutability": "view",
      "type": "function"
    }
  ],
  "bytecode": "0x60806040523480156200001157600080fd5b506040516200109f3803806200109f833981810160405281019062000037919062000224565b8060009081620000489190620004c0565b5033600160006101000a81548173ffffffffffffffffffffffffffffffffffffffff021916908373ffffffffffffffffffffffffffffffffffffffff16021790555050620005a7565b6000604051905090565b600080fd5b600080fd5b600080fd5b600080fd5b6000601f19601f8301169050919050565b7f4e487b7100000000000000000000000000000000000000000000000000000000600052604160045260246000fd5b620000fa82620000af565b810181811067ffffffffffffffff821117156200011c576200011b620000c0565b5b80604052505050565b60006200013162000091565b90506200013f8282620000ef565b919050565b600067ffffffffffffffff821115620001625762000161620000c0565b5b6200016d82620000af565b9050602081019050919050565b60005b838110156200019a5780820151818401526020810190506200017d565b60008484015250505050565b6000620001bd620001b78462000144565b62000125565b905082815260208101848484011115620001dc57620001db620000aa565b5b620001e98482856200017a565b509392505050565b600082601f830112620002095762000208620000a5565b5b81516200021b848260208601620001a6565b91505092915050565b6000602082840312156200023d576200023c6200009b565b5b600082015167ffffffffffffffff8111156200025e576200025d620000a0565b5b6200026c84828501620001f1565b91505092915050565b600081519050919050565b7f4e487b7100000000000000000000000000000000000000000000000000000000600052602260045260246000fd5b60006002820490506001821680620002c857607f821691505b602082108103620002de57620002dd62000280565b5b50919050565b60008190508160005260206000209050919050565b60006020601f8301049050919050565b600082821b905092915050565b600060088302620003487fffffffffffffffffffffffffffffffffffffffffffffffffffffffffffffffff8262000309565b62000354868362000309565b95508019841693508086168417925050509392505050565b6000819050919050565b6000819050919050565b6000620003a16200039b62000395846200036c565b62000376565b6200036c565b9050919050565b6000819050919050565b620003bd8362000380565b620003d5620003cc82620003a8565b84845462000316565b825550505050565b600090565b620003ec620003dd565b620003f9818484620003b2565b505050565b5b81811015620004215762000415600082620003e2565b600181019050620003ff565b5050565b601f82111562000470576200043a81620002e4565b6200044584620002f9565b8101602085101562000455578190505b6200046d6200046485620002f9565b830182620003fe565b50505b505050565b600082821c905092915050565b6000620004956000198460080262000475565b1980831691505092915050565b6000620004b0838362000482565b9150826002028217905092915050565b620004cb8262000275565b67ffffffffffffffff811115620004e757620004e6620000c0565b5b620004f38254620002af565b6200050082828562000425565b600060209050601f83116001811462000538576000841562000523578287015190505b6200052f8582620004a2565b8655506200059f565b601f1984166200054886620002e4565b60005b8281101562000572578489015182556001820191506020850194506020810190506200054b565b868310156200059257848901516200058e601f89168262000482565b8355505b6001600288020188555050505b505050505050565b610ae880620005b76000396000f3fe608060405234801561001057600080fd5b506004361061004c5760003560e01c806306fdde03146100515780635353a2d81461006f5780638da5cb5b1461008b578063cfae3217146100a9575b600080fd5b6100596100c7565b604051610066919061039e565b60405180910390f35b61008960048036038101906100849190610509565b610155565b005b6100936102c0565b6040516100a09190610593565b60405180910390f35b6100b16102e6565b6040516100be919061039e565b60405180910390f35b600080546100d4906105dd565b80601f0160208091040260200160405190810160405280929190818152602001828054610100906105dd565b801561014d5780601f106101225761010080835404028352916020019161014d565b820191906000526020600020905b81548152906001019060200180831161013057829003601f168201915b505050505081565b600160009054906101000a900473ffffffffffffffffffffffffffffffffffffffff1673ffffffffffffffffffffffffffffffffffffffff163373ffffffffffffffffffffffffffffffffffffffff16146101e5576040517f08c379a00000000000000000000000000000000000000000000000000000000081526004016101dc90610680565b60405180910390fd5b60008080546101f3906105dd565b80601f016020809104026020016040519081016040528092919081815260200182805461021f906105dd565b801561026c5780601f106102415761010080835404028352916020019161026c565b820191906000526020600020905b81548152906001019060200180831161024f57829003601f168201915b5050505050905081600090816102829190610856565b507f6c20b91d1723b78732eba64ff11ebd7966a6e4af568a00fa4f6b72c20f58b02a81836040516102b4929190610928565b60405180910390a15050565b600160009054906101000a900473ffffffffffffffffffffffffffffffffffffffff1681565b606060006040516020016102fa9190610a85565b604051602081830303815290604052905090565b600081519050919050565b600082825260208201905092915050565b60005b8381101561034857808201518184015260208101905061032d565b60008484015250505050565b6000601f19601f8301169050919050565b60006103708261030e565b61037a8185610319565b935061038a81856020860161032a565b61039381610354565b840191505092915050565b600060208201905081810360008301526103b88184610365565b905092915050565b6000604051905090565b600080fd5b600080fd5b600080fd5b600080fd5b7f4e487b7100000000000000000000000000000000000000000000000000000000600052604160045260246000fd5b61041682610354565b810181811067ffffffffffffffff82111715610435576104346103de565b5b80604052505050565b60006104486103c0565b9050610454828261040d565b919050565b600067ffffffffffffffff821115610474576104736103de565b5b61047d82610354565b9050602081019050919050565b82818337600083830152505050565b60006104ac6104a784610459565b61043e565b9050828152602081018484840111156104c8576104c76103d9565b5b6104d384828561048a565b509392505050565b600082601f8301126104f0576104ef6103d4565b5b8135610500848260208601610499565b91505092915050565b60006020828403121561051f5761051e6103ca565b5b600082013567ffffffffffffffff81111561053d5761053c6103cf565b5b610549848285016104db565b91505092915050565b600073ffffffffffffffffffffffffffffffffffffffff82169050919050565b600061057d82610552565b9050919050565b61058d81610572565b82525050565b60006020820190506105a86000830184610584565b92915050565b7f4e487b7100000000000000000000000000000000000000000000000000000000600052602260045260246000fd5b600060028204905060018216806105f557607f821691505b602082108103610608576106076105ae565b5b50919050565b7f4f6e6c7920746865206f776e65722063616e20706572666f726d20746869732060008201527f616374696f6e0000000000000000000000000000000000000000000000000000602082015250565b600061066a602683610319565b91506106758261060e565b604082019050919050565b600060208201905081810360008301526106998161065d565b9050919050565b60008190508160005260206000209050919050565b60006020601f8301049050919050565b600082821b905092915050565b6000600883026107027fffffffffffffffffffffffffffffffffffffffffffffffffffffffffffffffff826106c5565b61070c86836106c5565b95508019841693508086168417925050509392505050565b6000819050919050565b6000819050919050565b600061075361074e61074984610724565b61072e565b610724565b9050919050565b6000819050919050565b61076d83610738565b6107816107798261075a565b8484546106d2565b825550505050565b600090565b610796610789565b6107a1818484610764565b505050565b5b818110156107c5576107ba60008261078e565b6001810190506107a7565b5050565b601f82111561080a576107db816106a0565b6107e4846106b5565b810160208510156107f3578190505b6108076107ff856106b5565b8301826107a6565b50505b505050565b600082821c905092915050565b600061082d6000198460080261080f565b1980831691505092915050565b6000610846838361081c565b9150826002028217905092915050565b61085f8261030e565b67ffffffffffffffff811115610878576108776103de565b5b61088282546105dd565b61088d8282856107c9565b600060209050601f8311600181146108c057600084156108ae578287015190505b6108b8858261083a565b865550610920565b601f1984166108ce866106a0565b60005b828110156108f6578489015182556001820191506020850194506020810190506108d1565b86831015610913578489015161090f601f89168261081c565b8355505b6001600288020188555050505b505050505050565b600060408201905081810360008301526109428185610365565b905081810360208301526109568184610365565b90509392505050565b600081905092915050565b7f48656c6c6f2c2000000000000000000000000000000000000000000000000000600082015250565b60006109a060078361095f565b91506109ab8261096a565b600782019050919050565b600081546109c3816105dd565b6109cd818661095f565b945060018216600081146109e857600181146109fd57610a30565b60ff1983168652811515820286019350610a30565b610a06856106a0565b60005b83811015610a2857815481890152600182019150602081019050610a09565b838801955050505b50505092915050565b7f2100000000000000000000000000000000000000000000000000000000000000600082015250565b6000610a6f60018361095f565b9150610a7a82610a39565b600182019050919050565b6000610a9082610993565b9150610a9c82846109b6565b9150610aa782610a62565b91508190509291505056fea2646970667358221220d033c0d0683ee7e75b4602cdb7c3a458a07dbcc5e2fa310de265f66ee5ea174164736f6c63430008160033",
  "linkReferences": {},
  "deployedLinkReferences": {}
}